{
  "contractName": "ERC20Factory",
  "abi": [
    {
      "inputs": [],
      "stateMutability": "nonpayable",
      "type": "constructor"
    },
    {
      "inputs": [],
      "name": "owner",
      "outputs": [
        {
          "internalType": "address",
          "name": "",
          "type": "address"
        }
      ],
      "stateMutability": "view",
      "type": "function",
      "constant": true
    },
    {
      "inputs": [
        {
          "internalType": "string",
          "name": "_name",
          "type": "string"
        },
        {
          "internalType": "string",
          "name": "_symbol",
          "type": "string"
        },
        {
          "internalType": "uint256",
          "name": "_supply",
          "type": "uint256"
        }
      ],
      "name": "createToken",
      "outputs": [
        {
          "internalType": "address",
          "name": "",
          "type": "address"
        }
      ],
      "stateMutability": "nonpayable",
      "type": "function"
    }
  ],
  "bytecode": "0x608060405234801561001057600080fd5b50336000806101000a81548173ffffffffffffffffffffffffffffffffffffffff021916908373ffffffffffffffffffffffffffffffffffffffff160217905550612071806100606000396000f3fe60806040523480156200001157600080fd5b50600436106200003a5760003560e01c80635b060530146200003f5780638da5cb5b1462000075575b600080fd5b6200005d6004803603810190620000579190620002c7565b62000097565b6040516200006c9190620003a6565b60405180910390f35b6200007f620000e4565b6040516200008e9190620003a6565b60405180910390f35b600080848484604051620000ab9062000108565b620000b99392919062000467565b604051809103906000f080158015620000d6573d6000803e3d6000fd5b509050809150509392505050565b60008054906101000a900473ffffffffffffffffffffffffffffffffffffffff1681565b611b8980620004b383390190565b6000604051905090565b600080fd5b600080fd5b600080fd5b600080fd5b6000601f19601f8301169050919050565b7f4e487b7100000000000000000000000000000000000000000000000000000000600052604160045260246000fd5b6200017f8262000134565b810181811067ffffffffffffffff82111715620001a157620001a062000145565b5b80604052505050565b6000620001b662000116565b9050620001c4828262000174565b919050565b600067ffffffffffffffff821115620001e757620001e662000145565b5b620001f28262000134565b9050602081019050919050565b82818337600083830152505050565b6000620002256200021f84620001c9565b620001aa565b9050828152602081018484840111156200024457620002436200012f565b5b62000251848285620001ff565b509392505050565b600082601f8301126200027157620002706200012a565b5b8135620002838482602086016200020e565b91505092915050565b6000819050919050565b620002a1816200028c565b8114620002ad57600080fd5b50565b600081359050620002c18162000296565b92915050565b600080600060608486031215620002e357620002e262000120565b5b600084013567ffffffffffffffff81111562000304576200030362000125565b5b620003128682870162000259565b935050602084013567ffffffffffffffff81111562000336576200033562000125565b5b620003448682870162000259565b92505060406200035786828701620002b0565b9150509250925092565b600073ffffffffffffffffffffffffffffffffffffffff82169050919050565b60006200038e8262000361565b9050919050565b620003a08162000381565b82525050565b6000602082019050620003bd600083018462000395565b92915050565b600081519050919050565b600082825260208201905092915050565b60005b83811015620003ff578082015181840152602081019050620003e2565b838111156200040f576000848401525b50505050565b60006200042282620003c3565b6200042e8185620003ce565b935062000440818560208601620003df565b6200044b8162000134565b840191505092915050565b62000461816200028c565b82525050565b6000606082019050818103600083015262000483818662000415565b9050818103602083015262000499818562000415565b9050620004aa604083018462000456565b94935050505056fe60806040523480156200001157600080fd5b5060405162001b8938038062001b898339818101604052810190620000379190620004c2565b82600390805190602001906200004f9291906200023a565b508160049080519060200190620000689291906200023a565b50620000a5336200007e620000ae60201b60201c565b600a6200008c9190620006ec565b836200009991906200073d565b620000b760201b60201c565b50505062000911565b60006012905090565b600073ffffffffffffffffffffffffffffffffffffffff168273ffffffffffffffffffffffffffffffffffffffff1614156200012a576040517f08c379a00000000000000000000000000000000000000000000000000000000081526004016200012190620007ff565b60405180910390fd5b6200013e600083836200023060201b60201c565b806002600082825462000152919062000821565b92505081905550806000808473ffffffffffffffffffffffffffffffffffffffff1673ffffffffffffffffffffffffffffffffffffffff1681526020019081526020016000206000828254620001a9919062000821565b925050819055508173ffffffffffffffffffffffffffffffffffffffff16600073ffffffffffffffffffffffffffffffffffffffff167fddf252ad1be2c89b69c2b068fc378daa952ba7f163c4a11628f55a4df523b3ef836040516200021091906200088f565b60405180910390a36200022c600083836200023560201b60201c565b5050565b505050565b505050565b8280546200024890620008db565b90600052602060002090601f0160209004810192826200026c5760008555620002b8565b82601f106200028757805160ff1916838001178555620002b8565b82800160010185558215620002b8579182015b82811115620002b75782518255916020019190600101906200029a565b5b509050620002c79190620002cb565b5090565b5b80821115620002e6576000816000905550600101620002cc565b5090565b6000604051905090565b600080fd5b600080fd5b600080fd5b600080fd5b6000601f19601f8301169050919050565b7f4e487b7100000000000000000000000000000000000000000000000000000000600052604160045260246000fd5b620003538262000308565b810181811067ffffffffffffffff8211171562000375576200037462000319565b5b80604052505050565b60006200038a620002ea565b905062000398828262000348565b919050565b600067ffffffffffffffff821115620003bb57620003ba62000319565b5b620003c68262000308565b9050602081019050919050565b60005b83811015620003f3578082015181840152602081019050620003d6565b8381111562000403576000848401525b50505050565b6000620004206200041a846200039d565b6200037e565b9050828152602081018484840111156200043f576200043e62000303565b5b6200044c848285620003d3565b509392505050565b600082601f8301126200046c576200046b620002fe565b5b81516200047e84826020860162000409565b91505092915050565b6000819050919050565b6200049c8162000487565b8114620004a857600080fd5b50565b600081519050620004bc8162000491565b92915050565b600080600060608486031215620004de57620004dd620002f4565b5b600084015167ffffffffffffffff811115620004ff57620004fe620002f9565b5b6200050d8682870162000454565b935050602084015167ffffffffffffffff811115620005315762000530620002f9565b5b6200053f8682870162000454565b92505060406200055286828701620004ab565b9150509250925092565b7f4e487b7100000000000000000000000000000000000000000000000000000000600052601160045260246000fd5b60008160011c9050919050565b6000808291508390505b6001851115620005ea57808604811115620005c257620005c16200055c565b5b6001851615620005d25780820291505b8081029050620005e2856200058b565b9450620005a2565b94509492505050565b600082620006055760019050620006d8565b81620006155760009050620006d8565b81600181146200062e576002811462000639576200066f565b6001915050620006d8565b60ff8411156200064e576200064d6200055c565b5b8360020a9150848211156200066857620006676200055c565b5b50620006d8565b5060208310610133831016604e8410600b8410161715620006a95782820a905083811115620006a357620006a26200055c565b5b620006d8565b620006b8848484600162000598565b92509050818404811115620006d257620006d16200055c565b5b81810290505b9392505050565b600060ff82169050919050565b6000620006f98262000487565b91506200070683620006df565b9250620007357fffffffffffffffffffffffffffffffffffffffffffffffffffffffffffffffff8484620005f3565b905092915050565b60006200074a8262000487565b9150620007578362000487565b9250817fffffffffffffffffffffffffffffffffffffffffffffffffffffffffffffffff04831182151516156200079357620007926200055c565b5b828202905092915050565b600082825260208201905092915050565b7f45524332303a206d696e7420746f20746865207a65726f206164647265737300600082015250565b6000620007e7601f836200079e565b9150620007f482620007af565b602082019050919050565b600060208201905081810360008301526200081a81620007d8565b9050919050565b60006200082e8262000487565b91506200083b8362000487565b9250827fffffffffffffffffffffffffffffffffffffffffffffffffffffffffffffffff038211156200087357620008726200055c565b5b828201905092915050565b620008898162000487565b82525050565b6000602082019050620008a660008301846200087e565b92915050565b7f4e487b7100000000000000000000000000000000000000000000000000000000600052602260045260246000fd5b60006002820490506001821680620008f457607f821691505b602082108114156200090b576200090a620008ac565b5b50919050565b61126880620009216000396000f3fe608060405234801561001057600080fd5b50600436106100a95760003560e01c80633950935111610071578063395093511461016857806370a082311461019857806395d89b41146101c8578063a457c2d7146101e6578063a9059cbb14610216578063dd62ed3e14610246576100a9565b806306fdde03146100ae578063095ea7b3146100cc57806318160ddd146100fc57806323b872dd1461011a578063313ce5671461014a575b600080fd5b6100b6610276565b6040516100c39190610b22565b60405180910390f35b6100e660048036038101906100e19190610bdd565b610308565b6040516100f39190610c38565b60405180910390f35b61010461032b565b6040516101119190610c62565b60405180910390f35b610134600480360381019061012f9190610c7d565b610335565b6040516101419190610c38565b60405180910390f35b610152610364565b60405161015f9190610cec565b60405180910390f35b610182600480360381019061017d9190610bdd565b61036d565b60405161018f9190610c38565b60405180910390f35b6101b260048036038101906101ad9190610d07565b6103a4565b6040516101bf9190610c62565b60405180910390f35b6101d06103ec565b6040516101dd9190610b22565b60405180910390f35b61020060048036038101906101fb9190610bdd565b61047e565b60405161020d9190610c38565b60405180910390f35b610230600480360381019061022b9190610bdd565b6104f5565b60405161023d9190610c38565b60405180910390f35b610260600480360381019061025b9190610d34565b610518565b60405161026d9190610c62565b60405180910390f35b60606003805461028590610da3565b80601f01602080910402602001604051908101604052809291908181526020018280546102b190610da3565b80156102fe5780601f106102d3576101008083540402835291602001916102fe565b820191906000526020600020905b8154815290600101906020018083116102e157829003601f168201915b5050505050905090565b60008061031361059f565b90506103208185856105a7565b600191505092915050565b6000600254905090565b60008061034061059f565b905061034d858285610772565b6103588585856107fe565b60019150509392505050565b60006012905090565b60008061037861059f565b905061039981858561038a8589610518565b6103949190610e04565b6105a7565b600191505092915050565b60008060008373ffffffffffffffffffffffffffffffffffffffff1673ffffffffffffffffffffffffffffffffffffffff168152602001908152602001600020549050919050565b6060600480546103fb90610da3565b80601f016020809104026020016040519081016040528092919081815260200182805461042790610da3565b80156104745780601f1061044957610100808354040283529160200191610474565b820191906000526020600020905b81548152906001019060200180831161045757829003601f168201915b5050505050905090565b60008061048961059f565b905060006104978286610518565b9050838110156104dc576040517f08c379a00000000000000000000000000000000000000000000000000000000081526004016104d390610ecc565b60405180910390fd5b6104e982868684036105a7565b60019250505092915050565b60008061050061059f565b905061050d8185856107fe565b600191505092915050565b6000600160008473ffffffffffffffffffffffffffffffffffffffff1673ffffffffffffffffffffffffffffffffffffffff16815260200190815260200160002060008373ffffffffffffffffffffffffffffffffffffffff1673ffffffffffffffffffffffffffffffffffffffff16815260200190815260200160002054905092915050565b600033905090565b600073ffffffffffffffffffffffffffffffffffffffff168373ffffffffffffffffffffffffffffffffffffffff161415610617576040517f08c379a000000000000000000000000000000000000000000000000000000000815260040161060e90610f5e565b60405180910390fd5b600073ffffffffffffffffffffffffffffffffffffffff168273ffffffffffffffffffffffffffffffffffffffff161415610687576040517f08c379a000000000000000000000000000000000000000000000000000000000815260040161067e90610ff0565b60405180910390fd5b80600160008573ffffffffffffffffffffffffffffffffffffffff1673ffffffffffffffffffffffffffffffffffffffff16815260200190815260200160002060008473ffffffffffffffffffffffffffffffffffffffff1673ffffffffffffffffffffffffffffffffffffffff168152602001908152602001600020819055508173ffffffffffffffffffffffffffffffffffffffff168373ffffffffffffffffffffffffffffffffffffffff167f8c5be1e5ebec7d5bd14f71427d1e84f3dd0314c0f7b2291e5b200ac8c7c3b925836040516107659190610c62565b60405180910390a3505050565b600061077e8484610518565b90507fffffffffffffffffffffffffffffffffffffffffffffffffffffffffffffffff81146107f857818110156107ea576040517f08c379a00000000000000000000000000000000000000000000000000000000081526004016107e19061105c565b60405180910390fd5b6107f784848484036105a7565b5b50505050565b600073ffffffffffffffffffffffffffffffffffffffff168373ffffffffffffffffffffffffffffffffffffffff16141561086e576040517f08c379a0000000000000000000000000000000000000000000000000000000008152600401610865906110ee565b60405180910390fd5b600073ffffffffffffffffffffffffffffffffffffffff168273ffffffffffffffffffffffffffffffffffffffff1614156108de576040517f08c379a00000000000000000000000000000000000000000000000000000000081526004016108d590611180565b60405180910390fd5b6108e9838383610a7f565b60008060008573ffffffffffffffffffffffffffffffffffffffff1673ffffffffffffffffffffffffffffffffffffffff1681526020019081526020016000205490508181101561096f576040517f08c379a000000000000000000000000000000000000000000000000000000000815260040161096690611212565b60405180910390fd5b8181036000808673ffffffffffffffffffffffffffffffffffffffff1673ffffffffffffffffffffffffffffffffffffffff16815260200190815260200160002081905550816000808573ffffffffffffffffffffffffffffffffffffffff1673ffffffffffffffffffffffffffffffffffffffff1681526020019081526020016000206000828254610a029190610e04565b925050819055508273ffffffffffffffffffffffffffffffffffffffff168473ffffffffffffffffffffffffffffffffffffffff167fddf252ad1be2c89b69c2b068fc378daa952ba7f163c4a11628f55a4df523b3ef84604051610a669190610c62565b60405180910390a3610a79848484610a84565b50505050565b505050565b505050565b600081519050919050565b600082825260208201905092915050565b60005b83811015610ac3578082015181840152602081019050610aa8565b83811115610ad2576000848401525b50505050565b6000601f19601f8301169050919050565b6000610af482610a89565b610afe8185610a94565b9350610b0e818560208601610aa5565b610b1781610ad8565b840191505092915050565b60006020820190508181036000830152610b3c8184610ae9565b905092915050565b600080fd5b600073ffffffffffffffffffffffffffffffffffffffff82169050919050565b6000610b7482610b49565b9050919050565b610b8481610b69565b8114610b8f57600080fd5b50565b600081359050610ba181610b7b565b92915050565b6000819050919050565b610bba81610ba7565b8114610bc557600080fd5b50565b600081359050610bd781610bb1565b92915050565b60008060408385031215610bf457610bf3610b44565b5b6000610c0285828601610b92565b9250506020610c1385828601610bc8565b9150509250929050565b60008115159050919050565b610c3281610c1d565b82525050565b6000602082019050610c4d6000830184610c29565b92915050565b610c5c81610ba7565b82525050565b6000602082019050610c776000830184610c53565b92915050565b600080600060608486031215610c9657610c95610b44565b5b6000610ca486828701610b92565b9350506020610cb586828701610b92565b9250506040610cc686828701610bc8565b9150509250925092565b600060ff82169050919050565b610ce681610cd0565b82525050565b6000602082019050610d016000830184610cdd565b92915050565b600060208284031215610d1d57610d1c610b44565b5b6000610d2b84828501610b92565b91505092915050565b60008060408385031215610d4b57610d4a610b44565b5b6000610d5985828601610b92565b9250506020610d6a85828601610b92565b9150509250929050565b7f4e487b7100000000000000000000000000000000000000000000000000000000600052602260045260246000fd5b60006002820490506001821680610dbb57607f821691505b60208210811415610dcf57610dce610d74565b5b50919050565b7f4e487b7100000000000000000000000000000000000000000000000000000000600052601160045260246000fd5b6000610e0f82610ba7565b9150610e1a83610ba7565b9250827fffffffffffffffffffffffffffffffffffffffffffffffffffffffffffffffff03821115610e4f57610e4e610dd5565b5b828201905092915050565b7f45524332303a2064656372656173656420616c6c6f77616e63652062656c6f7760008201527f207a65726f000000000000000000000000000000000000000000000000000000602082015250565b6000610eb6602583610a94565b9150610ec182610e5a565b604082019050919050565b60006020820190508181036000830152610ee581610ea9565b9050919050565b7f45524332303a20617070726f76652066726f6d20746865207a65726f2061646460008201527f7265737300000000000000000000000000000000000000000000000000000000602082015250565b6000610f48602483610a94565b9150610f5382610eec565b604082019050919050565b60006020820190508181036000830152610f7781610f3b565b9050919050565b7f45524332303a20617070726f766520746f20746865207a65726f20616464726560008201527f7373000000000000000000000000000000000000000000000000000000000000602082015250565b6000610fda602283610a94565b9150610fe582610f7e565b604082019050919050565b6000602082019050818103600083015261100981610fcd565b9050919050565b7f45524332303a20696e73756666696369656e7420616c6c6f77616e6365000000600082015250565b6000611046601d83610a94565b915061105182611010565b602082019050919050565b6000602082019050818103600083015261107581611039565b9050919050565b7f45524332303a207472616e736665722066726f6d20746865207a65726f20616460008201527f6472657373000000000000000000000000000000000000000000000000000000602082015250565b60006110d8602583610a94565b91506110e38261107c565b604082019050919050565b60006020820190508181036000830152611107816110cb565b9050919050565b7f45524332303a207472616e7366657220746f20746865207a65726f206164647260008201527f6573730000000000000000000000000000000000000000000000000000000000602082015250565b600061116a602383610a94565b91506111758261110e565b604082019050919050565b600060208201905081810360008301526111998161115d565b9050919050565b7f45524332303a207472616e7366657220616d6f756e742065786365656473206260008201527f616c616e63650000000000000000000000000000000000000000000000000000602082015250565b60006111fc602683610a94565b9150611207826111a0565b604082019050919050565b6000602082019050818103600083015261122b816111ef565b905091905056fea2646970667358221220d22e27eaba58fb9b56ba9e74628c4ed33bacaac1c511cda58870f464d8a1b84e64736f6c634300080c0033a2646970667358221220e6b39ee051e6b219b1f8d0698244d5f94fb368d811cfea95ba59444749965b6f64736f6c634300080c0033",
  "immutableReferences": {},
  "source": "// SPDX-License-Identifier: MIT\npragma solidity ^0.8.12;\n\nimport \"./ERC20.sol\";\n\ncontract ERC20Factory {\n  address public owner;\n\n  constructor(){\n    owner = msg.sender;\n  }\n\n  function createToken(string memory _name, string memory _symbol,uint _supply) public returns(address){\n    ERC20 newToken = new ERC20(_name,_symbol,_supply);\n\n    return address(newToken);\n  }\n\n}\n",
  "sourcePath": "/Users/mnkhod/Projects/Blockchain/Diverse-SmartContract-Examples/diverse-erc20-factory/contracts/ERC20Factory.sol",
  "compiler": {
    "name": "solc",
    "version": "0.8.12+commit.f00d7308.Emscripten.clang"
  },
  "schemaVersion": "3.4.5",
  "updatedAt": "2022-03-08T11:31:14.736Z",
  "networkType": "ethereum",
  "devdoc": {
    "kind": "dev",
    "methods": {},
    "version": 1
  },
  "userdoc": {
    "kind": "user",
    "methods": {},
    "version": 1
  }
}